S01D0000747261666669635F6C696768745F70726F6A6563742E737265635B
S11300000C942A000C94E7000C943C000C943C00E3
S11300100C943C000C943C000C943C000C943C006C
S11300200C943C000C943C000C943C000C943C005C
S11300300C943C000C943C000C943C000C943C004C
S11300400C943C000C943C000C943C000C943C003C
S11300500C943C0011241FBECFE5D8E0DEBFCDBF19
S113006020E0A0E6B0E001C01D92A336B207E1F79C
S11300700E9450000C9458030C94000041E00E942C
S1130080FB01089541E00E946C02089540E00E9443
S11300906C02089540E062E083E00E94FB01089551
S11300A060E080E00E943E0061E080E00E943E004B
S11300B062E080E00E943E0060E081E00E943E0039
S11300C061E081E00E943E0062E081E00E943E0027
S11300D00E944A000E94DD020E94EA0260E080E081
S11300E00E94460061E080E00E94460062E080E0F9
S11300F00E94460060E081E00E94460061E081E0E9
S11301000E94460062E081E00E94460060E080E0D8
S11301100E944200C1E0C093610068E873E180E09E
S113012090E00E942F03C0936000C0E015C061E01E
S113013080E00E94420064EF71E080E090E00E9461
S11301402F0361E080E00E94460064EF71E080E0EC
S113015090E00E942F03CF5FC53048F310926000F7
S11301601092610060E080E00E94460062E080E05E
S11301700E944200C1E0C093620068E873E180E03D
S113018090E00E942F03C0936000C0E015C061E0BE
S113019080E00E94420064EF71E080E090E00E9401
S11301A02F0361E080E00E94460064EF71E080E08C
S11301B090E00E942F03CF5FC53048F31092600097
S11301C01092620062E080E00E94460087CF1F9296
S11301D00F920FB60F9211242F933F934F935F9377
S11301E06F937F938F939F93AF93BF93CF93EF932B
S11301F0FF9360E080E00E94460061E080E00E949E
S1130200460062E080E00E94460060E081E00E94D7
S1130210460061E081E00E94460062E081E00E94C5
S1130220460080916200813009F046C062E080E0BF
S11302300E94420060E081E00E94420068E873E1AD
S113024080E090E00E942F03C0E01DC061E080E0E8
S11302500E94420061E081E00E94420064EF71E08C
S113026080E090E00E942F0361E080E00E9446005D
S113027061E081E00E94460064EF71E080E090E07C
S11302800E942F03CF5FC53008F362E080E00E9434
S1130290460060E081E00E94460060E080E00E9449
S11302A0420062E081E00E94420068E873E180E07D
S11302B090E00E942F0385C080916100813029F075
S11302C080916000813009F07CC060E080E00E9491
S11302D0420062E081E00E94420060ED77E080E04D
S11302E090E00E942F03C0E01DC061E080E00E9406
S11302F0420061E081E00E94420064EF71E080E02E
S113030090E00E942F0361E080E00E94460061E0DB
S113031081E00E94460064EF71E080E090E00E947A
S11303202F03CF5FC53008F360E080E00E944600F1
S113033062E081E00E94460062E080E00E944200A8
S113034060E081E00E94420068E873E180E090E0B0
S11303500E942F03C0E01DC061E080E00E944200C3
S113036061E081E00E94420064EF71E080E090E08F
S11303700E942F0361E080E00E94460061E081E07A
S11303800E94460064EF71E080E090E00E942F0339
S1130390CF5FC53008F362E080E00E94460060E071
S11303A081E00E94460060E080E00E94420062E03A
S11303B081E00E94420068E873E180E090E00E94DE
S11303C02F0398E088E10FB6F894A89581BD0FBE7D
S11303D091BDFF91EF91CF91BF91AF919F918F917B
S11303E07F916F915F914F913F912F910F900FBE2D
S11303F00F901F901895442319F04130C9F10895C6
S1130400813091F028F08230D9F0833029F10895B9
S11304102AB381E090E002C0880F991F6A95E2F741
S1130420809582238ABB089527B381E090E002C0BF
S1130430880F991F6A95E2F78095822387BB0895F8
S113044024B381E090E002C0880F991F6A95E2F717
S11304508095822384BB089521B381E090E002C09B
S1130460880F991F6A95E2F78095822381BB0895CE
S1130470813089F028F08230C9F0833011F1089579
S11304802AB381E090E002C0880F991F6A95E2F7D1
S1130490822B8ABB089527B381E090E002C0880FC5
S11304A0991F6A95E2F7822B87BB089524B381E0F4
S11304B090E002C0880F991F6A95E2F7822B84BBF3
S11304C0089521B381E090E002C0880F991F6A95D6
S11304D0E2F7822B81BB0895442319F04130C9F11E
S11304E00895813091F028F08230D9F0833029F1D9
S11304F008952BB381E090E002C0880F991F6A959C
S1130500E2F7809582238BBB089528B381E090E0C5
S113051002C0880F991F6A95E2F78095822388BBF1
S1130520089525B381E090E002C0880F991F6A9571
S1130530E2F78095822385BB089522B381E090E0A1
S113054002C0880F991F6A95E2F78095822382BBC7
S11305500895813089F028F08230C9F0833011F198
S113056008952BB381E090E002C0880F991F6A952B
S1130570E2F7822B8BBB089528B381E090E002C0A0
S1130580880F991F6A95E2F7822B88BB089525B3DB
S113059081E090E002C0880F991F6A95E2F7822BF0
S11305A085BB089522B381E090E002C0880F991FB3
S11305B06A95E2F7822B82BB08958FB780688FBF5C
S11305C08BB780648BBF85B78E7F85BF85B782600C
S11305D085BF08958FB58E7F8FBD8FB58D7F8FBDFD
S11305E08EB588608EBD8EB58F7E8EBD8FB78068C8
S11305F08FBF89B7806189BF1DBC1CBC089561345D
S11306002FE1720781059105A8F4A8EEB3E09B01E0
S1130610AC010E943E03DC01CB01689416F8B69548
S1130620A795979587951694D1F7BC0161507109E8
S11306307BBD6ABD08958EB581608EBD8EB58D7FFC
S11306408EBD8EB584608EBD08958EB58E7F8EBDB1
S11306508EB58D7F8EBD8EB58B7F8EBD08950E9425
S1130660FF020E941B0308B604FEFDCF0E9425036F
S11306701DBC1CBC88B7806188BF08950E944903D3
S1130680A59F900DB49F900DA49F800D911D1124E2
S11306900895A29FB001B39FC001A39F700D811D57
S11306A01124911DB29F700D811D1124911D089577
S10706B0F894FFCFE8
S9030000FC
